:100000000C9434000C9451000C9451000C94510049
:100010000C9451000C941B010C9451000C94510051
:100020000C9451000C9451000C9451000C9451000C
:100030000C9451000C9451000C9451000C945100FC
:100040000C9453000C9451000C9451000C945100EA
:100050000C9451000C9451000C9451000C945100DC
:100060000C9451000C94510011241FBECFEFD8E026
:10007000DEBFCDBF11E0A0E0B1E0EAEFF6E202C0E2
:1000800005900D92A036B107D9F721E0A0E6B1E0C6
:1000900001C01D92AD3FB207E1F70E944B070C94DF
:1000A0007B130C9400001F920F920FB60F92112435
:1000B0008F939F93AF93BF93EF93FF93F8948091A7
:1000C000AD019091AE01A091AF01B091B001019648
:1000D000A11DB11D8093AD019093AE01A093AF011E
:1000E000B093B0018091A9019091AA01A091AB01B8
:1000F000B091AC010196A11DB11D8093A90190930F
:10010000AA01A093AB01B093AC01E9E9F1E08081D1
:100110009181A281B3810196A11DB11D808391833C
:10012000A283B38384819581A681B7810196A11DA5
:10013000B11D84839583A683B78380859185A2852D
:10014000B3850196A11DB11D80879187A287B387D2
:1001500084859585A685B7850196A11DB11D8487E7
:100160009587A687B787E9E7F1E080819181A28131
:10017000B3810196A11DB11D80839183A283B383B6
:1001800084819581A681B7810196A11DB11D8483CB
:100190009583A683B78380859185A285B3850196D3
:1001A000A11DB11D80879187A287B387848595851E
:1001B000A685B7850196A11DB11D84879587A68761
:1001C000B787E9E8F1E080819181A281B38101964E
:1001D000A11DB11D80839183A283B3838481958106
:1001E000A681B7810196A11DB11D84839583A68345
:1001F000B78380859185A285B3850196A11DB11D28
:1002000080879187A287B38784859585A685B785E2
:100210000196A11DB11D84879587A687B78778941D
:10022000FF91EF91BF91AF919F918F910F900FBE72
:100230000F901F9018951F920F920FB60F921124D6
:100240004F935F936F937F938F9348997EC01092E3
:100250006401499958C0109265014A9932C01092C0
:1002600066014B9B2BC08091670181111DC081E00D
:10027000809367014091A5015091A6016091A7016B
:100280007091A801409375015093760160937701B6
:10029000709378011092A5011092A6011092A70107
:1002A0001092A801809363018F917F916F915F916C
:1002B0004F910F900FBE0F901F90189510926701ED
:1002C000F3CF809166018111CCCF81E080936601EC
:1002D0004091A1015091A2016091A3017091A401EC
:1002E0004093710150937201609373017093740194
:1002F0001092A1011092A2011092A3011092A401E8
:1003000080936201AECF809165018111A6CF81E01B
:100310008093650140919D0150919E0160919F01E4
:100320007091A00140936D0150936E0160936F0135
:100330007093700110929D0110929E0110929F0186
:100340001092A0018093610188CF80916401811196
:1003500080CF81E0809364014091990150919A018E
:1003600060919B0170919C014093690150936A01D7
:1003700060936B0170936C011092990110929A0135
:1003800010929B0110929C018093600162CF28988B
:1003900029982A982B9820E041E050E035B1822F2F
:1003A0008370BA0102C0660F771F8A95E2F7CB010E
:1003B000932F982B95B97FEF34E664E0715030406D
:1003C0006040E1F700C0000095B18095892385B9B0
:1003D0002F5F283019F70895F8941092A901109210
:1003E000AA011092AB011092AC011092AD011092D3
:1003F000AE011092AF011092B001E9E8F1E0108275
:10040000118212821382148215821682178210863C
:100410001186128613861486158616861786E9E9D4
:10042000F1E01082118212821382148215821682E8
:1004300017821086118612861386148615861686F4
:100440001786E9E7F1E0108211821282138214828A
:1004500015821682178210861186128613861486DC
:1004600015861686178614BC82E085BD16BCEEE69E
:10047000F0E08081816080837894089524982C9A9C
:10048000259A8AB1807F8AB98BB1807F8BB98AB176
:100490008F708AB98BB18F708BB984B18F6084B93A
:1004A0000895BF92CF92DF92EF92FF920F931F9326
:1004B000CF93DF93E1EBF1E085E0B82EB08290E1DD
:1004C000C92EC1822FE1D22ED2823DE2E32EE382F9
:1004D0004BE3F42EF48208E4058316E51683D3E695
:1004E000D783C0E7C087BDE7B187A9E8A28777E9CE
:1004F000738764EA648751EB55874FEB46873DEC81
:1005000037872AED208B9BEE918B8FEF828BB38AFE
:10051000C48AD58AE68AF78A008F118FD28FC38F5B
:10052000B48FA58F768F678F50A341A332A323A3E7
:1005300094A385A3B6A2C7A2D0A6E1A6F2A603A75C
:1005400014A7D5A7C6A7B7A7A0AB71AB62AB53AB37
:1005500044AB35AB26AB97AB80AFB1AEC2AED3AE3A
:10056000E4AEF5AE06AF17AFD093F101C093F20140
:10057000B093F301A093F4017093F5016093F60139
:100580005093F7014093F8013093F9012093FA0159
:100590009093FB018093FC01DF91CF911F910F910C
:1005A000FF90EF90DF90CF90BF900895CF92DF92B1
:1005B000EF92FF920F931F9380958430F0F4413AAD
:1005C00051056105710508F44DC004E610E020E016
:1005D00030E044565109610971094017510762071B
:1005E000730710F48A019B01C901B8011F910F9193
:1005F000FF90EF90DF90CF9008958A019B018E309D
:10060000C0F4A5E03695279517950795AA95D1F7DB
:10061000413A51056105710538F30436110521058C
:10062000310550F18A3FA8F2445651096109710918
:10063000D9CF883130F1823260F595E03695279533
:10064000179507959A95D1F76A017B01E4E0F69436
:10065000E794D794C794EA95D1F70C0D1D1D2E1D74
:100660003F1DD6CF8A019B01B6E036952795179599
:100670000795BA95D1F7B8CF04E610E020E030E056
:10068000D1CFF4E03695279517950795FA95D1F7D0
:10069000BFCF8C32B8F08633E8F4F5E03695279575
:1006A00017950795FA95D1F76A017B01A3E0F694B7
:1006B000E794D794C794AA95D1F70C0D1D1D2E1D54
:1006C0003F1DA6CFB3E03695279517950795BA95A8
:1006D000D1F79ECF8034A8F494E0369527951795EE
:1006E00007959A95D1F76A017B01E3E0F694E794C8
:1006F000D794C794EA95D1F70C0D1D1D2E1D3F1DF3
:1007000087CF8A3410F5F4E036952795179507952D
:10071000FA95D1F76A017B01A3E0F694E794D794A8
:10072000C794AA95D1F7C00ED11EE21EF31E8A010E
:100730009B01B5E03695279517950795BA95D1F7A2
:100740000C0D1D1D2E1D3F1D63CF853548F43695BC
:10075000279517950795369527951795079558CF9F
:100760008E35B0F4B4E03695279517950795BA9570
:10077000D1F76A017B01F694E794D794C794F69475
:10078000E794D794C7940C0D1D1D2E1D3F1D40CF1F
:100790008836B0F4F3E03695279517950795FA95C6
:1007A000D1F76A017B01F694E794D794C794F69445
:1007B000E794D794C7940C0D1D1D2E1D3F1D28CF07
:1007C000823718F5B3E03695279517950795BA95B2
:1007D000D1F76A017B01F694E794D794C794F69415
:1007E000E794D794C794C00ED11EE21EF31E8A016F
:1007F0009B01E4E03695279517950795EA95D1F783
:100800000C0D1D1D2E1D3F1D03CF8C3828F4369571
:10081000279517950795FCCE863990F4E5E0369537
:10082000279517950795EA95D1F76A017B01F6940C
:10083000E794D794C7940C0D1D1D2E1D3F1DE8CEC7
:10084000803A90F4B4E03695279517950795BA95B8
:10085000D1F76A017B01F694E794D794C7940C0D05
:100860001D1D2E1D3F1DD4CE8A3AF8F4A4E0369506
:10087000279517950795AA95D1F76A017B01F694FC
:10088000E794D794C794C00ED11EE21EF31E8A01CE
:100890009B01B5E03695279517950795BA95D1F741
:1008A0000C0D1D1D2E1D3F1DB3CE843B90F4E3E0C7
:1008B0003695279517950795EA95D1F76A017B013B
:1008C000F694E794D794C7940C0D1D1D2E1D3F1D63
:1008D0009FCE8E3B40F493E036952795179507956C
:1008E0009A95D1F7CACF883CF8F4F3E0369527956E
:1008F00017950795FA95D1F76A017B01F694E7946D
:10090000D794C794C00ED11EE21EF31E8A019B012C
:10091000B4E03695279517950795BA95D1F70C0D44
:100920001D1D2E1D3F1D74CE823D60F5A3E0369542
:10093000279517950795AA95D1F76A017B01F6943B
:10094000E794D794C794C00ED11EE21EF31E8A010D
:100950009B0194E036952795179507959A95D1F7C1
:10096000C00ED11EE21EF31E8A019B01E5E0369502
:10097000279517950795EA95D1F70C0D1D1D2E1D8E
:100980003F1D46CE8C3D98F43695279517950795D3
:1009900036952795179507956A017B01F694E7949C
:1009A000D794C7940C0D1D1D2E1D3F1D31CE863EC4
:1009B00048F43695279517950795369527951795F9
:1009C00007959ACF803F00F536952795179507959F
:1009D00036952795179507956A017B01F694E7945C
:1009E000D794C794C00ED11EE21EF31E8A019B014C
:1009F000F3E03695279517950795FA95D1F70C0DE5
:100A00001D1D2E1D3F1D04CE8A3F68F53695279586
:100A10001795079536952795179507956A017B01D8
:100A2000F694E794D794C794C00ED11EE21EF31E2D
:100A30008A019B01A3E03695279517950795AA95FE
:100A4000D1F7C00ED11EE21EF31E8A019B01B4E055
:100A50003695279517950795BA95D1F70C0D1D1D5D
:100A60002E1D3F1DD5CD95E03695279517950795F9
:100A70009A95D1F76A017B01C01AD10AE20AF30AFA
:100A800097018601C5CD84E690E004C021E0920F75
:100A9000815031F01C9BFACF20E0920F8150D1F7AA
:100AA00020E030E040E0E1E0F0E0822F80628093DF
:100AB0007C0080917A00806480937A0080917A0033
:100AC00084FFFCCF80917A00806180937A008091CE
:100AD0007900893038F4BF01022E01C0660F0A94F4
:100AE000EAF7462B2F5F3F4F24303105F1F6EFE355
:100AF000FCE93197F1F700C0000084E604C021E072
:100B0000920F815031F01C9BFACF20E0920F815060
:100B1000D1F7973908F0842F08954F925F926F9222
:100B20007F928F929F92AF92BF92CF92DF92EF927D
:100B3000FF920F931F93CF93DF93CDB7DEB7A697A6
:100B40000FB6F894DEBF0FBECDBF882E912C31EBCF
:100B5000E32E31E0F32E60E070E044244394512C06
:100B6000AE01495D5F4F66246A94C401062E02C03F
:100B7000959587950A94E2F780FF56C1C201062E2B
:100B800001C0880F0A94EAF7A82EB82EB094B62FA9
:100B9000B062FE013196A0E085B18B2185B90FEFDF
:100BA00016E721E0015010402040E1F700C00000AE
:100BB000B0937C0080917A00806480937A00809169
:100BC0007A0084FFFCCF80917A00806180937A0064
:100BD000209179003FEF86E791E0315080409040CE
:100BE000E1F700C00000B0937C0080917A0080643F
:100BF00080937A0080917A0084FFFCCF80917A0004
:100C0000806180937A00809179000FEF16E731E0E0
:100C1000015010403040E1F700C00000B0937C006C
:100C200090917A00906490937A0090917A0094FF6A
:100C3000FCCF90917A00906190937A003091790086
:100C40009FEF06E711E0915000401040E1F700C02F
:100C50000000B0937C0090917A00906490937A00A9
:100C600090917A0094FFFCCF90917A0090619093DC
:100C70007A00D090790090E0820F911D830F911D32
:100C80008D0D911D96958795969587959183808377
:100C9000A23109F4B7C085B18A2985B9AA2309F41C
:100CA000E3C0A13109F4E0C02AE030E08FEF93EC1B
:100CB00009E0815090400040E1F700C000001FEFC4
:100CC00086E791E0115080409040E1F700C00000BD
:100CD000B0937C0080917A00806480937A00809148
:100CE0007A0084FFFCCF80917A00806180937A0043
:100CF000C09079000FEF16E781E00150104080406E
:100D0000E1F700C00000B0937C0080917A0080641D
:100D100080937A0080917A0084FFFCCF80917A00E2
:100D2000806180937A00809179009FEF06E711E05F
:100D3000915000401040E1F700C00000B0937C00EB
:100D400090917A00906490937A0090917A0094FF49
:100D5000FCCF90917A00906190937A00D0907900C6
:100D60009FEF06E711E0915000401040E1F700C00E
:100D70000000B0937C0090917A00906490937A0088
:100D800090917A0094FFFCCF90917A0090619093BB
:100D90007A007090790090E08C0D911D8D0D911D61
:100DA000870D911D9695879596958795C080D180E2
:100DB0008C199D098217930708F481CF2D9A85B16C
:100DC0008B2185B980E090E01C9B06C01C99FECF6A
:100DD00081E090E01C99FACF019684369105A1F745
:100DE00080E090E01C9906C01C9BFECF81E090E063
:100DF0001C9BFACF019684369105A1F72D98AF5F21
:100E00003296CACE89819A81FE013396D70121910B
:100E10003191820F931F969587958D93C9014E1737
:100E20005F07A9F7F701628A6F5F7F4FF3E1EF0E6B
:100E3000F11C6430710509F098CEA6960FB6F894AF
:100E4000DEBF0FBECDBFDF91CF911F910F91FF90FD
:100E5000EF90DF90CF90BF90AF909F908F907F905A
:100E60006F905F904F90089525E030E01FCFF99983
:100E7000FECF4CE450E068E070E081EB91E00E942E
:100E80006313F999FECF6AEA82E090E00E946D1345
:100E9000F999FECF0895CF93DF93CDB7DEB7CC524B
:100EA000D1400FB6F894DEBF0FBECDBF8E01075301
:100EB0001F4FC350DF4F19830883CD5FD04080E1BF
:100EC000D801E82F1D92EA95E9F700511109C550A4
:100ED000DF4F19830883CB5FD040D801E82F1D92E4
:100EE000EA95E9F700511109C750DF4F19830883CC
:100EF000C95FD040D801E82F1D92EA95E9F700516B
:100F00001109C950DF4F19830883C75FD040D8014A
:100F10001D928A95E9F7CF50DF4F188219821A8205
:100F20001B82C15FD04081E0C351DF4F8883CD5E1B
:100F3000D040C251DF4F8883CE5ED040C151DF4FD9
:100F40008883CF5ED040C051DF4F8883C05FD040E0
:100F50000C541109CB50DF4F19830883C55FD04073
:100F60009CE4D801E92F1D92EA95E9F7C751DF4FBC
:100F7000188219821A821B82C95ED040E0E0F1E03B
:100F8000DE01119601900D929A95E1F79FE7CB5102
:100F9000DF4F9883C55ED040CA51DF4F9883C65E4D
:100FA000D040C951DF4F9883C75ED040C851DF4F52
:100FB0009883C85ED040CF51DF4F9883C15ED04048
:100FC000CE51DF4F9883C25ED040CD51DF4F988322
:100FD000C35ED040CC51DF4F9883C45ED040C35233
:100FE000DF4F8883CD5DD040C252DF4F8883CE5D16
:100FF000D040C152DF4F8883CF5DD040C052DF4F19
:101000008883C05ED0400E94EC010E943E0284E0D2
:10101000809368008FE080936D0087B1807C87B9F2
:1010200088B1807C88B98FE380937E0080E88093CC
:101030007A0080E280937C0080917A0087608093C0
:101040007A0080917A00806480937A008FE19EE438
:101050000197F1F700C00000809168018F7D8093B7
:10106000680182E090E00E945B138A3A11F40C94CC
:10107000C6120E9451020E944305882331F00E944B
:101080008D050E9437070E94C70187B1807C87B910
:1010900088B1807C88B98FE380937E0080E880935C
:1010A0007A0080E280937C0080917A008760809350
:1010B0007A0080917A00806480937A008091680140
:1010C000807F80936801C85DDE4F1882C852D1408E
:1010D000C95EDE4F1882C751D140CA5DDE4F19820A
:1010E0001882C652D140CB5DDE4F1882C552D14026
:1010F000CC5DDE4F1882C452D140C45EDE4F1882F0
:1011000019821A821B82CC51D140F89480916001DF
:10111000C752DF4F8883C95DD04080916101C652BC
:10112000DF4F8883CA5DD04080916201C552DF4F96
:101130008883CB5DD04080916301C452DF4F8883A8
:10114000CC5DD04078948E0107521F4FCB5EDE4FAE
:1011500019830883C551D14000521109C150DF4F96
:1011600019830883CF5FD0409E0127563F4F690106
:101170000C561109C05EDE4F19830883C052D1405E
:10118000205D3F4F39010C541109CE5DDE4F1983AC
:101190000883C252D1402C5D3F4F290104521F4F9A
:1011A000AE014F515F4FCF5EDE4F59834883C1512F
:1011B000D140BE0167557F4FC15FDE4F79836883A1
:1011C000CF50D140CE0187519F4FC55FDE4F9983ED
:1011D0008883CB50D140A1EBB1E0C95FDE4FB9832A
:1011E000A883C750D140FE01EB51FF4FCD5FDE4FCA
:1011F000F983E883C350D1402C5E31091901445969
:1012000051094A01CD5EDE4F59834883C351D14015
:10121000E12CF12CCB5EDE4FA881B981C551D140C4
:101220008D91CB5EDE4FB983A883C551D140882311
:1012300009F456C4F8945701AA0CBB1CAA0CBB1C99
:10124000950127593E4FF90180819181A281B38197
:10125000F30180839183A283B383D701A05ABE4F49
:101260001C92D9011D921D921D921C921397F5019B
:10127000E758FE4F10821182128213827894CD5F5C
:10128000DE4FE881F981C350D1403081C95FDE4F24
:10129000E881F981C750D14080E090E02191231787
:1012A00008F082C4019683319105C1F7E0EFD801BF
:1012B000EC93D3012D913D914D915C91DA01C901DF
:1012C000F4E0B695A79597958795FA95D1F79C0187
:1012D000AD012F5F3F4F4F4F5F4FC150DF4FA88190
:1012E000B981CF5FD0402D933D934D935C9313977D
:1012F000BA01A901CF5EDE4FE881F981C151D14029
:1013000080810E94D602C15FDE4FA881B981CF5093
:10131000D1406D937D938D939C931397C55FDE4F62
:10132000E881F981CB50D1401082E1E0D201EC9309
:10133000F60180819181A281B381892B8A2B8B2B2D
:1013400049F4F894F501E757FE4F1082118212829A
:1013500013827894A4014D5E5F4FF401B501675785
:101360007E4FC85EDE4F39822882C851D1408081CD
:101370008F5F8083C85EDE4FA881B981C851D1409C
:101380009D91C85EDE4FB983A883C851D1408917AB
:1013900060F0D8012C91022E000C330B892F90E0C5
:1013A0002817390709F47CC3108231964E175F075E
:1013B000F1F6CD5EDE4F68817981C351D140FFEFF8
:1013C000EF1AFF0AC150DF4F28813981CF5FD0402B
:1013D0002C5F3F4FC150DF4F39832883CF5FD04010
:1013E00034E0C30ED11C6C5E7F4FCD5EDE4F79833F
:1013F0006883C351D1404A0174E0670E711C83E1D8
:10140000280E311C9FEF491A590A0F5F1F4FCF5EFC
:10141000DE4FA881B981C151D1401196CF5EDE4F18
:10142000B983A883C151D140C15FDE4FE881F98102
:10143000CF50D1403496C15FDE4FF983E883CF505F
:10144000D140C55FDE4F28813981CB50D1402F5F1D
:101450003F4FC55FDE4F39832883CB50D140C95FF2
:10146000DE4F48815981C750D1404D5E5F4FC95F03
:10147000DE4F59834883C750D140CD5FDE4F68812E
:101480007981C350D1406F5F7F4FCD5FDE4F79834D
:101490006883C350D14074E0E716F10409F0BACE76
:1014A000F8948091790190917A01A0917B01B0919B
:1014B0007C0180917D0190917E01A0917F01B0918E
:1014C00080018091810190918201A0918301B0916E
:1014D00084018091850190918601A0918701B0914E
:1014E000880178948E010F501F4F60E070E0C05E5D
:1014F000DE4FA881B981C052D140CE5DDE4FE88079
:10150000F980C252D14020E030E0F70189B190E08B
:10151000A9014C5F5F4F02C0959587954A95E2F708
:1015200080FDD5C22F5F3F4F621773077CF77F01A5
:10153000F8011082A7014D5E5F4F6F5F7F4F0F5F15
:101540001F4F7A01539664307105E9F6C95EDE4F8C
:101550000881C751D1400F5FC95EDE4F0883C75174
:10156000D140043008F0ACC5202F30E0C901880F0D
:10157000991F880F991FE9E9F0E0EC0FFD1FE80FB4
:10158000F91F4081518162817381411551056105C7
:101590007105F1F0ADEDB0E0AC0FBD1FA20FB31FB0
:1015A0002C9122300CF45BC6A9EBB0E0AC0FBD1F50
:1015B000A80FB91F8D919D910D90BC91A02D8417FE
:1015C0009507A607B70720F41082118212821382B2
:1015D000F894C0908901D0908A01E0908B01F0903E
:1015E0008C0100918D0110918E0120918F0130911D
:1015F00090014091910150919201609193017091FD
:1016000094018091950190919601A0919701B091DC
:101610009801C75DDE4F88839983AA83BB83C95233
:10162000D1404090790150907A0160907B01709098
:101630007C01C150DF4F488259826A827B82CF5F32
:10164000D04060907D0170907E0180907F019090ED
:101650008001CD5FDE4F688279828A829B82C3508F
:10166000D1408090810190908201A0908301B09040
:101670008401C95FDE4F88829982AA82BB82C750EB
:10168000D1408091850190918601A0918701B09110
:101690008801C55FDE4F88839983AA83BB83CB50C3
:1016A000D1407894C754DF4F88819981AA81BB814A
:1016B000C95BD0400097A105B10509F05DC38091D9
:1016C00068018E7F8093680133243A94C354DF4FBE
:1016D00088819981AA81BB81CD5BD0400097A1050B
:1016E000B10509F0D6C2809168018D7F80936801B1
:1016F000EFEFCF53DF4F88819981AA81BB81C15C15
:10170000D0400097A105B10509F067C48091680138
:101710008B7F80936801FFEFCB53DF4F88819981E6
:10172000AA81BB81C55CD0400097A105B10509F035
:10173000D1C380916801877F809368012FEFF8946F
:10174000FF24FA943F1461F0832D90E0A0E0B0E014
:101750008093890190938A01A0938B01B0938C01AF
:10176000EF3F61F08E2F90E0A0E0B0E080938D011C
:1017700090938E01A0938F01B0939001FF3F61F091
:101780008F2F90E0A0E0B0E08093910190939201C0
:10179000A0939301B09394012F3F61F0822F90E0CA
:1017A000A0E0B0E08093950190939601A0939701FB
:1017B000B0939801789485B1807D90916801892BD0
:1017C00085B91C9954C3F8948091AD019091AE01F4
:1017D000A091AF01B091B0017894CB5DDE4F08814C
:1017E000C552D140011100C5F8941092AD0110927C
:1017F000AE011092AF011092B0017894F89410925B
:10180000A9011092AA011092AB011092AC01789438
:1018100020916801206220936801C45EDE4F8883B6
:101820009983AA83BB83CC51D14011E0CB5DDE4FBD
:101830001883C552D140CC5DDE4F1882C452D140CE
:101840002C013D01411451046104710409F434C3B5
:10185000F8948091A9019091AA01A091AB01B09157
:10186000AC017894B301A201769567955795479599
:1018700084179507A607B70728F0209168012F7DE8
:1018800020936801C45EDE4F688079808A809B80E7
:10189000CC51D140681679068A069B0698F48619C1
:1018A0009709A809B909F8948093A9019093AA010E
:1018B000A093AB01B093AC017894809168018062F1
:1018C00080936801C95EDE4F0881C751D140033063
:1018D00009F01BCCCA5DDE4F08811981C652D14088
:1018E0000F5F1F4FCA5DDE4F19830883C652D14078
:1018F000053011050CF409CC80917A0084FF05CCE9
:1019000080917A00806180937A0080917900C85D2F
:10191000DE4FD880C852D140D39417E01D1508F48B
:10192000C2C49D2D906290937C0090917A00906447
:1019300090937A00C85DDE4F0881C852D1400430D0
:1019400008F0BFC4E02EF12CE5EEF0E0EC0FFD1F37
:10195000EE0DFF1D2081821708F001C530E0281B25
:101960003109A901330F660B770B42305105610530
:10197000710508F4DEC4E5EEF0E0EC0FFD1FEE0D9E
:10198000FF1D8083EDEDF0E0EC0FFD1FEE0DFF1D60
:10199000C080C85DDE4F4880C852D14073E1479E89
:1019A000F0011124EF54FE4F20E030E006C02F5F1D
:1019B0003F4F2331310509F412C591919817B8F3BF
:1019C000F901E45BFE4FA081EDEDF0E0EC0FFD1FAF
:1019D000EE0DFF1DA0838701000F111F000F111FC7
:1019E000E9ECF0E0EC0FFD1FE00FF11F6081718169
:1019F00082819381A03409F48FC5A03209F473C5A4
:101A0000A03109F45BC5A83009F447C5A43009F436
:101A1000F5C5A23009F4D7C531E03A0F3330A8F04C
:101A2000AE3F09F4DEC5AC3F09F4D2C5A83F09F4C6
:101A3000DDC5A03F09F4EBC4A7FD99C50A2E000C33
:101A4000BB0B9B01AC010E942913E9EBF0E0EC0F0A
:101A5000FD1FE00FF11F6083718382839383E1EEAA
:101A6000F0E0EC0FFD1FEE0DFF1DAB01BC0180810E
:101A70000E94D602E9EAF0E0EC0FFD1FE00FF11F33
:101A80006083718382839383C85DDE4FD882C8529E
:101A9000D140CA5DDE4F19821882C652D14035CB83
:101AA00088248394D2018C92D6018D909D90AD9024
:101AB000BC9089288A288B2809F076CCF894DB0121
:101AC0001D921D921D921C92139778946DCC7F01EC
:101AD000F8018081A701882311F14D5E5F4F2DCD64
:101AE000F894F701EE0FFF1FEE0FFF1FE758FE4FB0
:101AF00040815181628173817894F3018081918169
:101B0000A281B381880F991FAA1FBB1F8417950755
:101B1000A607B707D0F0A4014D5E5F4F4ACC4D5EDB
:101B20005F4F9D01F7017D018191823018F0815056
:101B3000D9018C932F5F3F4F4E175F07A9F7D7014D
:101B400044244394F8014082F8CCC150DF4FA8816F
:101B5000B981CF5FD0401D921D921D921C921397A8
:101B6000F6011082118212821382CD5EDE4FA881AF
:101B7000B981C351D1401C92F401118212821382A7
:101B80001482158216821782108611861286138699
:101B90001486158616861786108A118A128AA40161
:101BA0004D5E5F4FBD010BCCFC01E45BFE4F20811D
:101BB000C85EDE4F2883C851D140D8012C93F30171
:101BC0002081318142815381C85EDE4FF881C85146
:101BD000D140F03409F47CC2F03209F4C3C2F031D0
:101BE00009F4D9C2F83009F41EC3F43009F42CC347
:101BF000F23009F437C38F2F8F5F833008F46DCB39
:101C0000C85EDE4FA881C851D140AE3F09F445C33C
:101C1000AC3F09F484C3A83F09F498C3A03F09F47A
:101C20004DCBA7FDA6C30A2E000CBB0B0E942913A7
:101C3000AB01BC01C150DF4FA881B981CF5FD0405B
:101C40004D935D936D937C931397CF5EDE4FE88148
:101C5000F981C151D14080810E94D602C15FDE4F1F
:101C6000A881B981CF50D1406D937D938D939C9382
:101C70001397C55FDE4FE881F981CB50D1401082C8
:101C8000C85EDE4FF881C851D140F2300CF44DCB24
:101C900061CBC355DF4FC880D980EA80FB80CD5A25
:101CA000D0400C151D052E053F0528F0E091680178
:101CB000ED7FE0936801C356DF4FC880D980EA808A
:101CC000FB80CD59D040CD5FDE4F688079808A801F
:101CD0009B80C350D1406C147D048E049F0408F493
:101CE0003FC2C251DF4FE881CE5ED040EE2309F4FF
:101CF00037C2C251DF4F1882CE5ED040E0916801FA
:101D0000E260E0936801C651DF4FE881CA5ED040CF
:101D1000E150C651DF4FE883CA5ED040E0E0CD28F5
:101D2000CE28CF2881F4C252DF4FF881CE5DD0405B
:101D30001F160CF4DECCC651DF4FF880CA5ED040CF
:101D4000FF150CF0D6CC081719072A073B0708F433
:101D5000D0CCE02FE81B80916801826080936801FD
:101D6000C651DF4F8881CA5ED0408150C651DF4FD7
:101D70008883CA5ED040BDCCC755DF4F48805980AC
:101D80006A807B80C95AD040C414D504E604F704A5
:101D900028F0E0916801EE7FE0936801C756DF4FBD
:101DA000488059806A807B80C959D040C85EDE4F28
:101DB000488259826A827B82C851D140C150DF4F2C
:101DC00088809980AA80BB80CF5FD040841495041E
:101DD000A604B70408F4C1C1C351DF4FE881CD5E4A
:101DE000D040EE2309F4B9C1C351DF4F1882CD5E54
:101DF000D040E0916801E160E0936801C751DF4F96
:101E0000E881C95ED040E150C751DF4FE883C95E29
:101E1000D040312C45284628472881F4C352DF4F53
:101E2000E881CD5DD0401E160CF450CCC751DF4F79
:101E3000F881C95ED040EF170CF048CCC816D9061F
:101E4000EA06FB0608F442CC3C2C381A8091680163
:101E5000816080936801C751DF4F8881C95ED0409F
:101E60008150C751DF4F8883C95ED0402FCCCC5DF5
:101E7000DE4F1881C452D1401111A2C18091680176
:101E80008F7D80936801CB5DDE4F1882C552D140B3
:101E900001E0CC5DDE4F0883C452D140C45EDE4F0A
:101EA000488059806A807B80CC51D14041145104D4
:101EB0006104710409F0CCCC809168018F7D80931E
:101EC0006801C45EDE4F188219821A821B82CC51CF
:101ED000D140F8CCCB54DF4F488159816A817B8156
:101EE000C55BD040C75DDE4FA880B980CA80DB806B
:101EF000C952D140A416B506C606D70628F02091CF
:101F00006801277F20936801CB55DF4F48815981B5
:101F10006A817B81C55AD040C55FDE4FC880D980B9
:101F2000EA80FB80CB50D140C416D506E606F70602
:101F300008F411C1C051DF4F2881C05FD040222377
:101F400009F409C1C051DF4F1882C05FD040209111
:101F50006801286020936801C451DF4F2881CC5E5E
:101F6000D0402150C451DF4F2883CC5ED04020E0C8
:101F7000452B462B472B81F4C052DF4F3881C05E82
:101F8000D04013160CF4DBCBC451DF4F4881CC5E3C
:101F9000D04034170CF0D3CBC75DDE4FE880F9801A
:101FA0000A811B81C952D140E816F9060A071B07AE
:101FB00008F4C5CB2E2D281B809168018860809382
:101FC0006801C451DF4F8881CC5ED0408150C4513C
:101FD000DF4F8883CC5ED040B2CBCF54DF4F088137
:101FE00019812A813B81C15BD040401751076207AC
:101FF000730728F0209168012B7F20936801CF554B
:10200000DF4F088119812A813B81C15AD040C95FC5
:10201000DE4F88809980AA80BB80C750D14080164F
:102020009106A206B30608F494C0C151DF4FF881AF
:10203000CF5ED040FF2309F48CC0C151DF4F18821E
:10204000CF5ED040F0916801F460F0936801C55113
:10205000DF4FF881CB5ED040F150C551DF4FF883A0
:10206000CB5ED040F0E0012B022B032B81F4C15258
:10207000DF4F2881CF5DD04012160CF44DCBC551F7
:10208000DF4F3881CB5ED04023170CF045CB48178B
:1020900059076A077B0708F43FCBF42FF81B8091A0
:1020A0006801846080936801C551DF4F8881CB5EF1
:1020B000D0408150C551DF4F8883CB5ED0402CCBC0
:1020C00020E030E0C95EDE4F1882C751D1404ECAD1
:1020D000BA01A901440F551F661F771F440F551FF2
:1020E000661F771F440F551F661F771F440F551F2C
:1020F000661F771F440F551F661F771F440F551F1C
:10210000661F771FC150DF4FA881B981CF5FD040D4
:102110004D935D936D937C931397CF5EDE4FE88173
:10212000F981C151D14080810E94D602C15FDE4F4A
:10213000A881B981CF50D1406D937D938D939C93AD
:102140001397C55FDE4FE881F981CB50D1401082F3
:1021500001C9FFEF88CF2FEF0BCF33243A945ACE2B
:10216000EFEFDDCDDA01C901880F991FAA1FBB1F50
:10217000880F991FAA1FBB1F880F991FAA1FBB1F7B
:10218000880F991FAA1FBB1FAC01BD01440F551F2B
:10219000661F771FB7CFDA01C901880F991FAA1FE1
:1021A000BB1F880F991FAA1FBB1FAC01BD01440FA5
:1021B000551F661F771F440F551F661F771FA2CF3D
:1021C000CB5DDE4F1882C552D14001E0CC5DDE4FC1
:1021D0000883C452D140C45EDE4F488059806A8073
:1021E0007B80CC51D1402ECB81389E43A105B105D7
:1021F00008F43FC0F8941092A9011092AA0110921D
:10220000AB011092AC017894809168018F7D01E060
:10221000CB5DDE4F0883C552D140CC5DDE4F1882C6
:10222000C452D1404BCEDA01C901880F991FAA1FB1
:10223000BB1F880F991FAA1FBB1FAC01BD01440F14
:10224000551F661F771F5ECFBA01A901440F551FA6
:10225000661F771F440F551F661F771F53CFA9ECCA
:10226000B0E0A4C9BA01A901440F551F661F771F2A
:1022700049CF11E0CB5DDE4F1883C552D140CC5D14
:10228000DE4F1882C452D140C45EDE4F4880598070
:102290006A807B80CC51D140D5CA569547953795F9
:1022A00027950C946D09F0E2F0937C0090917A00F0
:1022B000906490937A00D12CC85DDE4F0881C8529B
:1022C000D140045010E0E1EEF0E0EC0FFD1FE00F14
:1022D000F11F2081821708F078C030E0281B3109F7
:1022E000A901330F660B770B443051056105710569
:1022F00000F1E1EEF0E0EC0FFD1FE00FF11F808335
:10230000000F111F000F111FE9EBF0E0EC0FFD1F94
:10231000E00FF11F4081518162817381A9CB5695F5
:1023200047953795279556954795379527950C945A
:102330006D09C85DDE4FD882C852D140CA5DDE4FFC
:1023400019821882C652D1400C948508A3E0569594
:10235000479537952795AA95D1F70C946D09482F85
:1023600050E0BA01621B7109AB01770F660B770B66
:10237000FCCA8A2F992781950CF49095BC01990F7E
:10238000880B990BC85EDE4F688379838A839B83B1
:10239000C851D140CA01B901C85EDE4F28813981D8
:1023A0004A815B81C851D1400E940713BA01A9013B
:1023B000C150DF4FA881B981CF5FD0404D935D936D
:1023C0006D937C9313970C947A09482F50E04A013F
:1023D000821A9108A401990C660B770B85CFEDED5D
:1023E000F0E0EC0FFD1FEE0DFF1D80EF482E408248
:1023F0008701000F111F000F111FE9ECF0E0EC0F37
:10240000FD1FE00FF11F6081718182819381AB011B
:10241000BC0134E076956795579547953A95D1F785
:102420004F5F5F4F6F4F7F4FE9EBF0E0EC0FFD1F09
:10243000E00FF11F4083518362837383E1EEF0E08C
:10244000EC0FFD1FEE0DFF1D80810E94D602E9EA10
:10245000F0E0EC0FFD1FE00FF11F608371838283BA
:10246000938340EF542EC51409F463CFE9E9F0E0FB
:10247000EC0FFD1FE00FF11F1082118212821382F8
:10248000C85DDE4FD882C852D140CA5DDE4F198286
:102490001882C652D1400C948508DC01CB01880F0C
:1024A000991FAA1FBB1F880F991FAA1FBB1FBC0122
:1024B000CD01660F771F881F991FC7CADC01CB01AA
:1024C000880F991FAA1FBB1F880F991FAA1FBB1F28
:1024D000BC01CD01660F771F881F991F660F771FFC
:1024E000881F991FB2CADC01CB01880F991FAA1F50
:1024F000BB1F880F991FAA1FBB1F880F991FAA1FF8
:10250000BB1F880F991FAA1FBB1FBC01CD01660FFF
:10251000771F881F991F99CAAB01BC01440F551F33
:10252000661F771F440F551F661F771F440F551FE7
:10253000661F771F440F551F661F771F440F551FD7
:10254000661F771F440F551F661F771FE9EBF0E0EA
:10255000EC0FFD1FE00FF11F4083518362837383F3
:10256000E1EEF0E0EC0FFD1FEE0DFF1D80CA6A2EBC
:10257000772461940CF470949301032E000C440BA7
:10258000550B0E940713CA01B9015FCA4CE450E021
:1025900068E070E081EB91E00E944B1381EB91E0E9
:1025A0004DEF51E0FC01219143963191231710F03A
:1025B0000C943908232F8E179F07B9F7481759072E
:1025C00089F70C943B08660F771F881F991F3DCA37
:1025D000969587957795679596958795779567955D
:1025E00034CA96958795779567952FCA53E0969547
:1025F0008795779567955A95D1F727CA660F771F04
:10260000881F991F660F771F881F991F1ECAA1E296
:102610001A2EAA1BBB1BFD010DC0AA1FBB1FEE1F5C
:10262000FF1FA217B307E407F50720F0A21BB30BA7
:10263000E40BF50B661F771F881F991F1A9469F723
:1026400060957095809590959B01AC01BD01CF017F
:102650000895B7FF0C9431130E943113821B930B22
:1026600008950E943C13A59F900DB49F900DA49FC8
:10267000800D911D11240895A29FB001B39FC00148
:10268000A39F700D811D1124911DB29F700D811D9E
:102690001124911D0895DC01CB01FC01F999FECFB5
:1026A00006C0F2BDE1BDF89A319600B40D924150DA
:1026B0005040B8F70895F999FECF92BD81BDF89AC0
:1026C000992780B50895DC01CB0103C02D910E94AC
:1026D0006E1341505040D0F70895262FF999FECF40
:1026E0001FBA92BD81BD20BD0FB6F894FA9AF99A2F
:0A26F0000FBE01960895F894FFCF85
:1026FA00F0F4F8F9FAFBFCFDFE01020304050607F3
:10270A00081020F0F4F8F9FAFBFCFDFE01020304BC
:10271A00050607081020F0F4F8F9FAFBFCFDFE01A3
:10272A00020304050607081020F0F4F8F9FAFBFC86
:10273A00FDFE010203040506070810202010080701
:10274A00060504030201FEFDFCFBFAF9F8F4F000A9
:00000001FF
