:100000000C9434000C9451000C9451000C94510049
:100010000C9451000C941B010C9451000C94510051
:100020000C9451000C9451000C9451000C9451000C
:100030000C9451000C9451000C9451000C945100FC
:100040000C9453000C9451000C9451000C945100EA
:100050000C9451000C9451000C9451000C945100DC
:100060000C9451000C94510011241FBECFEFD8E026
:10007000DEBFCDBF11E0A0E0B1E0ECE7FEE102C0E1
:1000800005900D92A836B107D9F722E0A8E6B1E0B5
:1000900001C01D92A530B207E1F70E94E3060C945F
:1000A0003C0F0C9400001F920F920FB60F92112478
:1000B0008F939F93AF93BF93EF93FF93F8948091A7
:1000C000B5019091B601A091B701B091B801019628
:1000D000A11DB11D8093B5019093B601A093B70106
:1000E000B093B8018091B1019091B201A091B30198
:1000F000B091B4010196A11DB11D8093B1019093FF
:10010000B201A093B301B093B401E1EAF1E08081C0
:100110009181A281B3810196A11DB11D808391833C
:10012000A283B38384819581A681B7810196A11DA5
:10013000B11D84839583A683B78380859185A2852D
:10014000B3850196A11DB11D80879187A287B387D2
:1001500084859585A685B7850196A11DB11D8487E7
:100160009587A687B787E1E8F1E080819181A28138
:10017000B3810196A11DB11D80839183A283B383B6
:1001800084819581A681B7810196A11DB11D8483CB
:100190009583A683B78380859185A285B3850196D3
:1001A000A11DB11D80879187A287B387848595851E
:1001B000A685B7850196A11DB11D84879587A68761
:1001C000B787E1E9F1E080819181A281B381019655
:1001D000A11DB11D80839183A283B3838481958106
:1001E000A681B7810196A11DB11D84839583A68345
:1001F000B78380859185A285B3850196A11DB11D28
:1002000080879187A287B38784859585A685B785E2
:100210000196A11DB11D84879587A687B78778941D
:10022000FF91EF91BF91AF919F918F910F900FBE72
:100230000F901F9018951F920F920FB60F921124D6
:10024000CF92DF92EF92FF922F933F934F938F9332
:100250009F93AF93BF93CF93DF93EF93FF93ECE61E
:10026000F1E080E090E041E029B130E0082E02C0EA
:10027000359527950A94E2F720FF22C020812111AD
:1002800020C040839C01220F331F220F331FD9014E
:10029000AF55BE4FCD90DD90ED90FC901397E901E6
:1002A000CF58DE4FC882D982EA82FB821D921D920E
:1002B0001D921C921397DC01A859BE4F4C9301C0AC
:1002C0001082019631968430910571F6FF91EF917D
:1002D000DF91CF91BF91AF919F918F914F913F91BE
:1002E0002F91FF90EF90DF90CF900F900FBE0F9067
:1002F0001F90189584E0809368008FE080936D00D4
:100300000895F8946091B5017091B6018091B7019C
:100310009091B80178940895F8946091B10170912A
:10032000B2018091B3019091B40178940895F8944A
:100330001092B1011092B2011092B3011092B40167
:1003400078940895F8941092B5011092B601109225
:10035000B7011092B8017894089587B1807C87B96D
:1003600088B1807C88B98FE380937E00EAE7F0E073
:1003700080E8808380E280937C0080818760808336
:100380008081806480830895289829982A982B98E2
:1003900080E041E050E095B1282F2370BA0102C0FF
:1003A000660F771F2A95E2F79B01962B95B9E3EE2E
:1003B000F7E53197F1F700C0000095B120952923AA
:1003C00025B98F5F883039F70895F8941092B101FC
:1003D0001092B2011092B3011092B4011092B501C3
:1003E0001092B6011092B7011092B801E1E9F1E064
:1003F0001082118212821382148215821682178251
:100400001086118612861386148615861686178620
:10041000E1EAF1E0108211821282138214821582C5
:100420001682178210861186128613861486158608
:1004300016861786E1E8F1E010821182128213829B
:1004400014821582168217821086118612861386F0
:10045000148615861686178614BC82E085BD16BCE8
:10046000EEE6F0E08081816080837894089524989E
:100470002C9A259A8AB1807F8AB98BB1807F8BB9FB
:100480008AB18F708AB98BB18F708BB984B18F604C
:1004900084B90895AF92BF92CF92DF92EF92FF920C
:1004A0000F931F93CF93DF93E9EBF1E085E0B82E34
:1004B00090E1C92E2FE1D22E3DE2E32E4BE3F42E44
:1004C00008E416E5D3E6C0E7BDE7A9E877E964EA02
:1004D00051EB4FEB3DEC2AED9BEEAA24AA94B0829F
:1004E000C182D282E382F48205831683D783C087D8
:1004F000B187A28773876487558746873787208BA4
:10050000918BA28A739682E0E530F80741F7DF917C
:10051000CF911F910F91FF90EF90DF90CF90BF9000
:10052000AF90089523E1829FC001112420E030E0C4
:10053000F901E80FF91FE754FE4F4081461728F0F4
:10054000F901EC5AFE4F808108952F5F3F4F233110
:10055000310571F780EF0895A82FCB01BA01A034BF
:1005600041F436E0660F771F881F991F3A95D1F73F
:100570000895A03241F425E0660F771F881F991F68
:100580002A95D1F70895A03141F4B4E0660F771FA2
:10059000881F991FBA95D1F70895A83041F4A3E0B8
:1005A000660F771F881F991FAA95D1F70895A43069
:1005B00041F4F2E0660F771F881F991FFA95D1F773
:1005C0000895A23029F4660F771F881F991F089598
:1005D00021E02A0F233008F443C0AE3F29F496955A
:1005E0008795779567950895AC3F41F442E09695DD
:1005F0008795779567954A95D1F70895A83F41F477
:1006000033E096958795779567953A95D1F7089554
:10061000A03F81F4DC01CB0124E0B695A795979526
:1006200087952A95D1F7BC01CD016F5F7F4F8F4F22
:100630009F4F0895A7FF0DC0BB27A1950CF4B0955F
:100640009D01BB0F440B550B0E94C80ECA01B90196
:1006500008950A2E000CBB0B9B01AC010E94EA0E10
:100660000895CF92DF92EF92FF920F931F936A014A
:100670007B01E82FE095E43080F4413A51056105B3
:10068000710508F0C8C1CB01BA0136E0969587958F
:10069000779567953A95D1F7E6C1EE3050F4CB01E6
:1006A000BA0125E096958795779567952A95D1F7B4
:1006B000C8C1E83150F4CB01BA0104E096958795A2
:1006C000779567950A95D1F7BCC1E23288F4B5E019
:1006D0007695679557954795BA95D1F7D701C60195
:1006E00014E0B695A795979587951A95D1F70BC104
:1006F000EC3250F4CB01BA01A3E09695879577953B
:100700006795AA95D1F79DC1E63340F4F5E076955B
:10071000679557954795FA95D1F709C0E03488F465
:1007200034E076956795579547953A95D1F7D70177
:10073000C60123E0B695A795979587952A95D1F799
:10074000E2C0EA3488F4DB01CA0114E0B695A7954B
:10075000979587951A95D1F703E076956795579504
:1007600047950A95D1F7C2C0E53550F4CB01BA01DF
:10077000A2E09695879577956795AA95D1F761C17F
:10078000EE3540F4F4E07695679557954795FA95E0
:10079000D1F709C0E83688F433E076956795579528
:1007A00047953A95D1F7D701C60122E0B695A795AE
:1007B000979587952A95D1F7A6C0E23788F4DB0193
:1007C000CA0113E0B695A795979587951A95D1F725
:1007D00002E076956795579547950A95D1F75CC0E5
:1007E000EC3838F4CB01BA019695879577956795E3
:1007F00028C1E63940F4A5E0769567955795479569
:10080000AA95D1F71FC0E03A40F4F4E076956795D9
:1008100057954795FA95D1F715C0EA3A50F4DB01A0
:10082000CA0144E0B695A795979587954A95D1F763
:100830001BC0E43B70F433E0769567955795479578
:100840003A95D1F7D701C601B695A79597958795A3
:100850005AC0EE3B80F4DB01CA0103E0B695A795D0
:10086000979587950A95D1F7B701A6017695679573
:10087000579547953BC0E83CE8F4DB01CA0143E0EB
:10088000B695A795979587954A95D1F7B701A60193
:100890007695679557954795840F951FA61FB71FA7
:1008A000B701A60134E076956795579547953A9537
:1008B000D1F729C0E23D80F5DB01CA0113E0B6950E
:1008C000A795979587951A95D1F77695679557953A
:1008D0004795840F951FA61FB71FB701A60124E0F7
:1008E00076956795579547952A95D1F7840F951F6B
:1008F000A61FB71FB701A601F5E076956795579536
:100900004795FA95D1F78C019D01040F151F261FFD
:10091000371FC901B80195C0EC3D80F48A019B01E5
:10092000A2E03695279517950795AA95D1F7DB0193
:10093000CA01B695A7959795879556C0DB01CA0160
:10094000E63E70F452E0B695A795979587955A952F
:10095000D1F7B701A601769567955795479537C0AA
:10096000E03FC8F402E0B695A795979587950A955C
:10097000D1F77695679557954795840F951FA61FD4
:10098000B71F9701860143E0369527951795079580
:100990004A95D1F729C0EA3F70F552E0B695A79580
:1009A000979587955A95D1F7B701A60176956795E2
:1009B00057954795480F591F6A1F7B1FD701C601DE
:1009C00013E0B695A795979587951A95D1F7840F5B
:1009D000951FA61FB71F9701860144E036952795FE
:1009E000179507954A95D1F7BC01CD01600F711F8E
:1009F000821F931F26C025E0B695A79597958795EA
:100A00002A95D1F79A01AB01281B390B4A0B5B0BD6
:100A1000CA01B90116C064E670E080E090E0970179
:100A200086010456110921093109061717072807FD
:100A30003907C8F4C701B6016456710981099109E3
:100A400012C031EAC316D104E104F10460F0643647
:100A500071058105910520F464E670E080E090E086
:100A6000EA3F40F7DCCF1F910F91FF90EF90DF90AE
:100A7000CF900895806280937C0080917A0080649A
:100A800080937A0080917A0084FFFCCF80917A0075
:100A9000806180937A00809179000895EF92FF92AF
:100AA0000F931F93CF93DF9384E6C0E01C9BCF5F2F
:100AB0008150E1F700E010E0D0E0EE24E394F12C67
:100AC000802F0E943A05893038F4C701002E01C0FA
:100AD000880F0A94EAF7D82B0F5F1F4F04301105D7
:100AE00079F783EC99E00197F1F700C0000084E604
:100AF0001C9BCF5F8150E1F7C73908F08D2FDF9144
:100B0000CF911F910F91FF90EF9008952F923F92F8
:100B10004F925F926F927F928F929F92AF92BF920D
:100B2000CF92DF92EF92FF920F931F93CF93DF93B9
:100B3000CDB7DEB7A9970FB6F894DEBF0FBECDBF15
:100B4000E9EBCE2EE1E0DE2E00E010E0282F30E0D1
:100B500039A728A7602E88A599A5002E02C09595D3
:100B600087950A94E2F780FFCFC022242394312C8A
:100B7000002E01C0220C0A94EAF72FA22094CE0185
:100B800001965C014C01512C85B1822185B9ABE401
:100B9000BDE11197F1F700C00000862D0E943A05D3
:100BA000782EEBE4FDE13197F1F700C00000862DCF
:100BB0000E943A05F82E8BE49DE10197F1F700C001
:100BC0000000862D0E943A05E82EABE4BDE11197A6
:100BD000F1F700C00000862D0E943A052F2D30E06D
:100BE000270D311D2E0D311D280F311D36952795EE
:100BF00036952795F40131832083F2E15F1609F4DD
:100C000064C085B12FA1822B85B9552029F031E12F
:100C1000531611F08AE001C085E0AFE4B3EC119700
:100C2000F1F700C00000E82EF12CEBE4FDE1319774
:100C3000F1F700C00000862D0E943A05382E8BE4A3
:100C40009DE10197F1F700C00000862D0E943A0552
:100C5000782EABE4BDE11197F1F700C00000862DBE
:100C60000E943A05482EEBE4FDE13197F1F700C010
:100C70000000862D0E943A05272D30E0230D311DFE
:100C8000240D311D280F311D369527953695279552
:100C9000D4018D919C91281B390B2E153F0528F20C
:100CA0002D9A85B1822185B980E090E01C99FCCF16
:100CB000019684369105D1F780E090E01C9BFCCF33
:100CC000019684369105D1F72D985394B2E08B0E9E
:100CD000911CE3E15E1258CF20E030E0D5014D9148
:100CE0005D915D01F601E20FF31F8D919C91840FE0
:100CF000951F9695879580832F5F3F4F2231310551
:100D000069F72FEFF601228B0F5F1F4F33E1C30E00
:100D1000D11C0430110509F01DCFA9960FB6F89427
:100D2000DEBF0FBECDBFDF91CF911F910F91FF901E
:100D3000EF90DF90CF90BF90AF909F908F907F907B
:100D40006F905F904F903F902F90089582E090E0D9
:100D50000E941C0F91E08A3A09F090E0892F0895D3
:100D60004CE450E068E070E089EB91E00C940C0FEB
:100D700049EB51E094E09A0182E1F90171812F5F22
:100D80003F4F6081671748F48150B9F791504D5E2D
:100D90005F4F9111F0CF81E0089580E00895F999B7
:100DA000FECF4CE450E068E070E089EB91E00E94F7
:100DB000240FF999FECF6AEA82E090E00E942E0F9C
:100DC000F999FECF0895CF93DF93CDB7DEB7C55421
:100DD000D1400FB6F894DEBF0FBECDBFFE01E75184
:100DE000FF4F80E1DF01282F1D922A95E9F77097C8
:100DF000DF01282F1D922A95E9F77097DF01282F30
:100E00001D922A95E9F77097DF01282F1D922A95E8
:100E1000E9F77097DF01282F1D922A95E9F770975F
:100E2000DF011D928A95E9F7C75EDE4F18821982AD
:100E30001A821B82C951D140CB5EDE4F18821982C3
:100E40001A821B82C551D14040910001509101018D
:100E50006091020170910301CF5EDE4F4883598398
:100E60006A837B83C151D140EC54F1098CE4DF01EA
:100E7000282F1D922A95E9F7C35FDE4F1882198249
:100E80001A821B82CD50D140E4E0F1E0DE011196E0
:100E900001900D928A95E1F7809150019091510156
:100EA000A0915201B0915301C75FDE4F88839983AF
:100EB000AA83BB83C950D140CB5FDE4F888399831F
:100EC000AA83BB83C550D140CF5FDE4F488359838F
:100ED0006A837B83C150D1400E94E5010E943702A2
:100EE0000E947A010E94AD0181EE94E00197F1F732
:100EF00000C00000809170018F7D809370010E947E
:100F0000A606882331F00E94B0060E94B80681111F
:100F100002C00E944A020E944E05882331F00E94BE
:100F200086050E94CF060E94C4010E94AD018091F7
:100F30007001807F8093700110E0C75DDE4F1882E2
:100F4000C952D140212C312CC85DDE4F1882C852C5
:100F5000D140C95DDE4F1882C752D140CD5DDE4F12
:100F6000188219821A821B82C352D140F894809150
:100F70006801C750DF4F8883C95FD0408091690105
:100F8000C650DF4F8883CA5FD04080916A01C55048
:100F9000DF4F8883CB5FD04080916B01C450DF4F1F
:100FA0008883CC5FD0407894DE01A750BF4FCC5BE4
:100FB000DE4FB983A883C454D140FE01E754FF4FEC
:100FC000CA5CDE4FF983E883C653D1409E012756A1
:100FD0003F4FC45DDE4F39832883CC52D1403E0160
:100FE0003DE4630E711C6E0149ECC40ED11CBE01C0
:100FF0006F5F7F4F4B01CE018F5E9E4FC65DDE4F10
:1010000099838883CA52D1401896C25DDE4FB98356
:10101000A883CE52D140E05BFF4FC45CDE4FF98322
:10102000E883CC53D1409E012B5F3E4FC25CDE4F24
:1010300039832883CE53D140AE0147555F4FC05D01
:10104000DE4F59834883C053D140645F7E4FC15EF9
:10105000DE4F79836883CF51D140CE5BDE4F7983F9
:101060006883C254D140C05CDE4F59834883C0546A
:10107000D140CC5CDE4FB983A883C453D140CE5C51
:10108000DE4F99838883C253D140C65CDE4F99827C
:101090008882CA53D1407301C85CDE4F798268826E
:1010A000C853D140C45DDE4F48805980CC52D140F6
:1010B000CA5CDE4F88819981C653D140CF5DDE4F37
:1010C00099838883C152D140A12CB12CCC5BDE4FD7
:1010D000A881B981C454D1408D91CC5BDE4FB983D6
:1010E000A883C454D140F501EE0FFF1FEE0FFF1F80
:1010F000C35EDE4FF983E883CD51D140882309F4E4
:10110000DBC0F8949F012F583E4FF90180819181F7
:10111000A281B381F60180839183A283B383D50139
:10112000A859BE4F1C92D9011D921D921D921C926E
:101130001397C35EDE4FE881F981CD51D140EF575F
:10114000FE4F10821182128213827894C45CDE4FAB
:10115000E881F981CC53D14060818A2D0E949202AE
:10116000082FCC5CDE4FA881B981C453D1408C9349
:10117000F60140815181628173810E94AC02AB0112
:10118000BC01CF5DDE4FA881B981C152D1404D93E2
:101190005D936D937C931397C25CDE4FE881F98178
:1011A000CE53D14080810E943103C05CDE4FA881C4
:1011B000B981C054D1406D937D938D939C931397C7
:1011C000CE5BDE4FE881F981C254D14010820230FB
:1011D000FCF4E1E0CE5CDE4FA881B981C253D1407E
:1011E000EC93F20180819181A281B381892B8A2BBA
:1011F0008B2B71F4F894C35EDE4FE881F981CD51F9
:10120000D140EF56FE4F10821182128213827894E1
:10121000F70180E090E0C35EDE4F28813981CD5137
:10122000D1402F563E4FC35EDE4F39832883CD51C8
:10123000D14040814F5F4083C65CDE4F28813981B9
:10124000CA53D140280F391FD9012C91421768F198
:10125000CC5CDE4FA881B981C453D1404C91042E9F
:10126000000C550B30E042175307F1F421E0CE5C3F
:10127000DE4FA881B981C253D1402C93D2014D9148
:101280005D916D917C91452B462B472B69F4F89429
:10129000C35EDE4FA881B981CD51D1401D921D9210
:1012A0001D921C9213977894108201963196833187
:1012B000910509F0BECF46C0F894C35EDE4FE881C9
:1012C000F981CD51D140EF57FE4F4081518162816C
:1012D00073817894F60180819181A281B381880F16
:1012E000991FAA1FBB1F84179507A607B70750F5BC
:1012F000CF5DDE4FA881B981C152D1401D921D92B0
:101300001D921C921397F201108211821282138295
:10131000C85CDE4FA881B981C853D1401C92F70147
:10132000118212821382148215821682178210860D
:101330001186128613861486158616861786108ADD
:10134000118A128AFFEFAF1ABF0ACF5DDE4F2881E4
:101350003981C152D1402C5F3F4FCF5DDE4F398381
:101360002883C152D14034E0430E511CC85CDE4F8B
:1013700048815981C853D1404C5E5F4FC85CDE4FF5
:1013800059834883C853D14053E1E50EF11C64E012
:10139000C60ED11CC65CDE4F88819981CA53D140EC
:1013A0004396C65CDE4F99838883CA53D140CE5C96
:1013B000DE4FA881B981C253D1401196CE5CDE4F79
:1013C000B983A883C253D140CC5CDE4FE881F98158
:1013D000C453D1403196CC5CDE4FF983E883C453CB
:1013E000D140C45CDE4F28813981CC53D1402F5F7E
:1013F0003F4FC45CDE4F39832883CC53D140C25C5D
:10140000DE4F48815981CE53D1404F5F5F4FC25C60
:10141000DE4F59834883CE53D140C05CDE4F688194
:101420007981C054D1406C5F7F4FC05CDE4F7983BF
:101430006883C054D140CE5BDE4F88819981C2540D
:10144000D1400196CE5BDE4F99838883C254D14050
:1014500094E0A916B10409F039CEF8948091810185
:1014600090918201A0918301B0918401C752DF4F16
:1014700088839983AA83BB83C95DD040809185010D
:1014800090918601A0918701B0918801C352DF4FEE
:1014900088839983AA83BB83CD5DD04080918901E5
:1014A00090918A01A0918B01B0918C01CF51DF4FB7
:1014B00088839983AA83BB83C15ED04080918D01CC
:1014C00090918E01A0918F01B0919001CB51DF4F8F
:1014D00088839983AA83BB83C55ED0407894FE013C
:1014E000E75EFE4F31E089B190E00A2C02C095958D
:1014F00087950A94E2F780FF16C08081811114C09D
:1015000080E090E0D401A80FB91F2C91223028F080
:10151000D301A80FB91F21502C9301968331910557
:1015200089F7308301C01082AFEFAA1ABA0A319648
:10153000B3E18B0E911C23E1620E711C48E0A416EE
:10154000B10489F6C75DDE4F5881C952D1405F5F53
:10155000C75DDE4F5883C952D140543028F0C75D73
:10156000DE4F1882C952D140C75DDE4F6881C95233
:10157000D140262F30E0C901880F991F880F991F8D
:10158000E9E9F0E0EC0FFD1FE80FF91F4081518100
:1015900062817381411551056105710501F1A1E079
:1015A000B1E0AC0FBD1FA20FB31F2C9122301CF075
:1015B000A9EBB0E002C0A9ECB0E0AC0FBD1FA80FD2
:1015C000B91F8D919D910D90BC91A02D8417950709
:1015D000A607B70720F41082118212821382F894B2
:1015E0008091910190919201A0919301B091940109
:1015F000C751DF4F88839983AA83BB83C95ED040DC
:101600008091950190919601A0919701B0919801D8
:10161000C351DF4F88839983AA83BB83CD5ED040BB
:101620008091990190919A01A0919B01B0919C01A8
:10163000CF50DF4F88839983AA83BB83C15FD0409B
:1016400080919D0190919E01A0919F01B091A00178
:10165000CB50DF4F88839983AA83BB83C55FD0407B
:101660008091810190918201A0918301B0918401C8
:10167000C752DF4F88839983AA83BB83C95DD0405B
:101680008091850190918601A0918701B091880198
:10169000C352DF4F88839983AA83BB83CD5DD0403B
:1016A0008091890190918A01A0918B01B0918C0168
:1016B000CF51DF4F88839983AA83BB83C15ED0401B
:1016C00080918D0190918E01A0918F01B091900138
:1016D000CB51DF4F88839983AA83BB83C55ED040FB
:1016E000789480917001FE01E350FF4FDE01AB5E04
:1016F000BE4FCE5CDE4FB983A883C253D1409E015A
:1017000027523F4FC35EDE4F39832883CD51D140EE
:10171000AE0147515F4FCF5DDE4F59834883C152C1
:10172000D14020E030E00FEF922F0083CA5CDE4F03
:10173000A881B981C653D1408D909D90AD90BD9048
:10174000CA5CDE4FB983A883C653D140811491048B
:10175000A104B10409F4A0C0CF5DDE4FA881B98116
:10176000C152D1404D915D916D917C91C05DDE4F34
:10177000A881B981C053D140CD90DD90ED90FC900F
:101780004C155D056E057F0550F0EE24E394F12CB9
:10179000022E01C0EE0C0A94EAF7E0948E21C45D9B
:1017A000DE4FA881B981CC52D1404D905D906D90B3
:1017B0007C90C35EDE4FA881B981CD51D140CD90E0
:1017C000DD90ED90FC90C414D504E604F70448F0D5
:1017D000C65DDE4FA881B981CA52D140FC90F1109C
:1017E00009C0CE5CDE4FA881B981C253D140FC90C4
:1017F000FF2009F1CE5CDE4FA881B981C253D140F0
:101800001C92C65DDE4FA881B981CA52D1401C929C
:101810001082EE24E394F12C092E01C0EE0C0A9400
:10182000EAF78E29C15EDE4FA881B981CF51D14040
:10183000FC90FA94FC9245284628472891F4C25D12
:10184000DE4FA881B981CE52D140FC901F146CF1BB
:10185000C15EDE4FA881B981CF51D140EC90FE141A
:1018600024F5481559056A057B05F8F0481959090A
:101870006A097B09408341E050E001C0440F9A951A
:10188000EAF7842BC15EDE4FA881B981CF51D140E8
:101890009C9191509C9309C041E050E0022E01C000
:1018A000440F0A94EAF7409584232F5F3F4F319607
:1018B000C15EDE4F48815981CF51D1404F5F5F4FAC
:1018C000C15EDE4F59834883CF51D140C25DDE4FA8
:1018D00068817981CE52D1406F5F7F4FC25DDE4F0C
:1018E00079836883CE52D140CE5CDE4FA881B98126
:1018F000C253D1401196CE5CDE4FB983A883C25348
:10190000D140C65DDE4F48815981CA52D1404F5FF8
:101910005F4FC65DDE4F59834883CA52D140C35ED4
:10192000DE4F68817981CD51D1406C5F7F4FC35EBE
:10193000DE4F79836883CD51D140C45DDE4FA881ED
:10194000B981CC52D1401496C45DDE4FB983A883CF
:10195000CC52D140CF5DDE4F48815981C152D14038
:101960004C5F5F4FCF5DDE4F59834883C152D140FA
:10197000C05DDE4F68817981C053D1406C5F7F4F7D
:10198000C05DDE4F79836883C053D1402430310578
:1019900009F0CACE80937001F894C350DF4F88815C
:1019A000CD5FD0408F3F59F090E0A0E0B0E0809351
:1019B000910190939201A0939301B0939401C2502E
:1019C000DF4F8881CE5FD0408F3F59F090E0A0E09C
:1019D000B0E08093950190939601A0939701B09306
:1019E0009801C150DF4F8881CF5FD0408F3F59F0C1
:1019F00090E0A0E0B0E08093990190939A01A093C9
:101A00009B01B0939C01C050DF4F8881C050D140F2
:101A10008F3F59F090E0A0E0B0E080939D0190935B
:101A20009E01A0939F01B093A001789485B1807D21
:101A300090917001892B85B91C993DC00E9481014C
:101A40006B017C01C85DDE4F7881C852D1407111B5
:101A500018C00E94A2010E949701809170018062CB
:101A600080937001CD5DDE4FC882D982EA82FB820D
:101A7000C352D14081E0C85DDE4F8883C852D14057
:101A800038C091E8C9169EE3D906E104F10458F183
:101A90000E949701809170018F7D80937001A1E079
:101AA000C85DDE4FA883C852D140C95DDE4F1882A1
:101AB000C752D14076C0C95DDE4FB881C752D14010
:101AC000B1111DC0809170018F7D80937001C85D40
:101AD000DE4F1882C852D140E1E0C95DDE4FE88395
:101AE000C752D14017C0F1E0C85DDE4FF883C8523D
:101AF000D140C95DDE4F1882C752D1400BC0C85DCE
:101B0000DE4F1882C852D14021E0C95DDE4F2883E4
:101B1000C752D140CD5DDE4F488159816A817B81BA
:101B2000C352D140452B462B472BD9F10E948C0143
:101B3000CD5DDE4FC880D980EA80FB80C352D140A2
:101B4000F694E794D794C7946C157D058E059F0590
:101B500028F0209170012F7D20937001CD5DDE4F24
:101B6000288139814A815B81C352D14026173707CA
:101B70004807590718F5DC01CB01821B930BA40B16
:101B8000B50BF8948093B1019093B201A093B30187
:101B9000B093B40178948091700180628093700159
:101BA0000DC0809170018F7D80937001CD5DDE4FFF
:101BB000188219821A821B82C352D140C75DDE4F40
:101BC0003881C952D140333011F0B12E41C04FEFAE
:101BD000241A340A55E025163104BCF380917A00AA
:101BE00084FFF3CF80917A00806180937A008091A6
:101BF0007900BB24B394B10E67E06B1508F4B12CE7
:101C00009B2D906290937C0090917A0090649093C9
:101C10007A00282F30E0143008F079C0E12EF12C42
:101C2000E9E0F1E0EC0FFD1FEE0DFF1D9081492F63
:101C300050E0891778F4421B530B052E000C660BFD
:101C4000770B423051056105710548F4212C312C88
:101C50001B2D8CC9D901A41BB50BAD01EECFE9E05A
:101C6000F1E0EC0FFD1FEE0DFF1D8083CC24C3942B
:101C7000DC2CCC0EDD1ECE0CDF1CF601A080682F04
:101C8000812F0E949202982ED6018C938701000F1B
:101C9000111F000F111FE9ECF0E0EC0FFD1FE00F2A
:101CA000F11F40815181628173810E94AC02AB01BE
:101CB000BC01E9EBF0E0EC0FFD1FE00FF11F4083EA
:101CC000518362837383E5E0F1E0EC0FFD1FEE0DBD
:101CD000FF1D80810E943103E9EAF0E0EC0FFD1F57
:101CE000E00FF11F6083718382839383B0EF9B12B7
:101CF000ADCFAB1609F4AACFE9E9F0E0EC0FFD1F78
:101D0000E00FF11F10821182128213829FCF1450B4
:101D1000012F10E0E5E0F1E0EC0FFD1FE00FF11FF7
:101D20009081492F50E0891718F4421B530B04C0CF
:101D3000F901E41BF50BAF01052E000C660B770BC8
:101D4000443051056105710508F480CFE5E0F1E00C
:101D5000EC0FFD1FE00FF11F8083000F111F000F1C
:101D6000111FE9EBF0E0EC0FFD1FE00FF11F4081C8
:101D70005181628173810E943103E9EAF0E0EC0F46
:101D8000FD1FE00FF11F60837183828393835ECF19
:101D9000A1E21A2EAA1BBB1BFD010DC0AA1FBB1F6F
:101DA000EE1FFF1FA217B307E407F50720F0A21BE1
:101DB000B30BE40BF50B661F771F881F991F1A944E
:101DC00069F760957095809590959B01AC01BD0178
:101DD000CF010895B7FF0C94F20E0E94F20E821B01
:101DE000930B08950E94FD0EA59F900DB49F900D3A
:101DF000A49F800D911D11240895A29FB001B39F4F
:101E0000C001A39F700D811D1124911DB29F700D03
:101E1000811D1124911D0895DC01CB01FC01F9996C
:101E2000FECF06C0F2BDE1BDF89A319600B40D9226
:101E300041505040B8F70895F999FECF92BD81BD49
:101E4000F89A992780B50895DC01CB0103C02D9144
:101E50000E942F0F41505040D0F70895262FF99936
:101E6000FECF1FBA92BD81BD20BD0FB6F894FA9A7D
:0C1E7000F99A0FBE01960895F894FFCF78
:101E7C0001010101F0F4F8F9FAFBFCFDFE0102038B
:101E8C0004050607081020F0F4F8F9FAFBFCFDFE37
:101E9C0001020304050607081020F0F4F8F9FAFB18
:101EAC00FCFDFE01020304050607081020F0F4F8FF
:101EBC00F9FAFBFCFDFE01020304050607081020DD
:101ECC007F7F7F7F20100807060504030201FEFDBB
:081EDC00FCFBFAF9F8F4F00038
:00000001FF
